{
  "_format": "hh-sol-artifact-1",
  "contractName": "GregToken",
  "sourceName": "contracts/GregToken.sol",
  "abi": [
    {
      "inputs": [],
      "stateMutability": "nonpayable",
      "type": "constructor"
    },
    {
      "anonymous": false,
      "inputs": [
        {
          "indexed": true,
          "internalType": "address",
          "name": "owner",
          "type": "address"
        },
        {
          "indexed": true,
          "internalType": "address",
          "name": "spender",
          "type": "address"
        },
        {
          "indexed": false,
          "internalType": "uint256",
          "name": "value",
          "type": "uint256"
        }
      ],
      "name": "Approval",
      "type": "event"
    },
    {
      "anonymous": false,
      "inputs": [
        {
          "indexed": true,
          "internalType": "address",
          "name": "previousOwner",
          "type": "address"
        },
        {
          "indexed": true,
          "internalType": "address",
          "name": "newOwner",
          "type": "address"
        }
      ],
      "name": "OwnershipTransferred",
      "type": "event"
    },
    {
      "anonymous": false,
      "inputs": [
        {
          "indexed": true,
          "internalType": "address",
          "name": "from",
          "type": "address"
        },
        {
          "indexed": true,
          "internalType": "address",
          "name": "to",
          "type": "address"
        },
        {
          "indexed": false,
          "internalType": "uint256",
          "name": "value",
          "type": "uint256"
        }
      ],
      "name": "Transfer",
      "type": "event"
    },
    {
      "anonymous": false,
      "inputs": [
        {
          "indexed": true,
          "internalType": "address",
          "name": "_from",
          "type": "address"
        },
        {
          "indexed": false,
          "internalType": "string",
          "name": "_value",
          "type": "string"
        },
        {
          "indexed": false,
          "internalType": "uint256",
          "name": "_intvalue",
          "type": "uint256"
        }
      ],
      "name": "logging",
      "type": "event"
    },
    {
      "inputs": [
        {
          "internalType": "address",
          "name": "_stakeholder",
          "type": "address"
        }
      ],
      "name": "addStakeholder",
      "outputs": [],
      "stateMutability": "nonpayable",
      "type": "function"
    },
    {
      "inputs": [
        {
          "internalType": "address",
          "name": "owner",
          "type": "address"
        },
        {
          "internalType": "address",
          "name": "spender",
          "type": "address"
        }
      ],
      "name": "allowance",
      "outputs": [
        {
          "internalType": "uint256",
          "name": "",
          "type": "uint256"
        }
      ],
      "stateMutability": "view",
      "type": "function"
    },
    {
      "inputs": [
        {
          "internalType": "address",
          "name": "spender",
          "type": "address"
        },
        {
          "internalType": "uint256",
          "name": "amount",
          "type": "uint256"
        }
      ],
      "name": "approve",
      "outputs": [
        {
          "internalType": "bool",
          "name": "",
          "type": "bool"
        }
      ],
      "stateMutability": "nonpayable",
      "type": "function"
    },
    {
      "inputs": [
        {
          "internalType": "address",
          "name": "account",
          "type": "address"
        }
      ],
      "name": "balanceOf",
      "outputs": [
        {
          "internalType": "uint256",
          "name": "",
          "type": "uint256"
        }
      ],
      "stateMutability": "view",
      "type": "function"
    },
    {
      "inputs": [],
      "name": "buyToken",
      "outputs": [],
      "stateMutability": "payable",
      "type": "function"
    },
    {
      "inputs": [
        {
          "internalType": "address",
          "name": "_stakeholder",
          "type": "address"
        }
      ],
      "name": "calculateReward",
      "outputs": [
        {
          "internalType": "uint256",
          "name": "",
          "type": "uint256"
        }
      ],
      "stateMutability": "view",
      "type": "function"
    },
    {
      "inputs": [],
      "name": "claimRewards",
      "outputs": [],
      "stateMutability": "nonpayable",
      "type": "function"
    },
    {
      "inputs": [
        {
          "internalType": "uint256",
          "name": "_stake",
          "type": "uint256"
        }
      ],
      "name": "createStake",
      "outputs": [],
      "stateMutability": "nonpayable",
      "type": "function"
    },
    {
      "inputs": [],
      "name": "decimals",
      "outputs": [
        {
          "internalType": "uint8",
          "name": "",
          "type": "uint8"
        }
      ],
      "stateMutability": "view",
      "type": "function"
    },
    {
      "inputs": [
        {
          "internalType": "address",
          "name": "spender",
          "type": "address"
        },
        {
          "internalType": "uint256",
          "name": "subtractedValue",
          "type": "uint256"
        }
      ],
      "name": "decreaseAllowance",
      "outputs": [
        {
          "internalType": "bool",
          "name": "",
          "type": "bool"
        }
      ],
      "stateMutability": "nonpayable",
      "type": "function"
    },
    {
      "inputs": [],
      "name": "distributeRewards",
      "outputs": [],
      "stateMutability": "nonpayable",
      "type": "function"
    },
    {
      "inputs": [
        {
          "internalType": "address",
          "name": "spender",
          "type": "address"
        },
        {
          "internalType": "uint256",
          "name": "addedValue",
          "type": "uint256"
        }
      ],
      "name": "increaseAllowance",
      "outputs": [
        {
          "internalType": "bool",
          "name": "",
          "type": "bool"
        }
      ],
      "stateMutability": "nonpayable",
      "type": "function"
    },
    {
      "inputs": [
        {
          "internalType": "address",
          "name": "_address",
          "type": "address"
        }
      ],
      "name": "isStakeholder",
      "outputs": [
        {
          "internalType": "bool",
          "name": "",
          "type": "bool"
        },
        {
          "internalType": "uint256",
          "name": "",
          "type": "uint256"
        }
      ],
      "stateMutability": "view",
      "type": "function"
    },
    {
      "inputs": [
        {
          "internalType": "uint256",
          "name": "_newPrice",
          "type": "uint256"
        }
      ],
      "name": "modifyTokenBuyPrice",
      "outputs": [],
      "stateMutability": "nonpayable",
      "type": "function"
    },
    {
      "inputs": [],
      "name": "name",
      "outputs": [
        {
          "internalType": "string",
          "name": "",
          "type": "string"
        }
      ],
      "stateMutability": "view",
      "type": "function"
    },
    {
      "inputs": [],
      "name": "owner",
      "outputs": [
        {
          "internalType": "address",
          "name": "",
          "type": "address"
        }
      ],
      "stateMutability": "view",
      "type": "function"
    },
    {
      "inputs": [
        {
          "internalType": "uint256",
          "name": "_stake",
          "type": "uint256"
        }
      ],
      "name": "removeStake",
      "outputs": [],
      "stateMutability": "nonpayable",
      "type": "function"
    },
    {
      "inputs": [
        {
          "internalType": "address",
          "name": "_stakeholder",
          "type": "address"
        }
      ],
      "name": "removeStakeholder",
      "outputs": [],
      "stateMutability": "nonpayable",
      "type": "function"
    },
    {
      "inputs": [],
      "name": "renounceOwnership",
      "outputs": [],
      "stateMutability": "nonpayable",
      "type": "function"
    },
    {
      "inputs": [
        {
          "internalType": "address",
          "name": "_stakeholder",
          "type": "address"
        }
      ],
      "name": "rewardOf",
      "outputs": [
        {
          "internalType": "uint256",
          "name": "",
          "type": "uint256"
        }
      ],
      "stateMutability": "view",
      "type": "function"
    },
    {
      "inputs": [
        {
          "internalType": "address",
          "name": "_stakeholder",
          "type": "address"
        }
      ],
      "name": "stakeOf",
      "outputs": [
        {
          "internalType": "uint256",
          "name": "",
          "type": "uint256"
        }
      ],
      "stateMutability": "view",
      "type": "function"
    },
    {
      "inputs": [],
      "name": "stakingDuration",
      "outputs": [
        {
          "internalType": "uint256",
          "name": "",
          "type": "uint256"
        }
      ],
      "stateMutability": "view",
      "type": "function"
    },
    {
      "inputs": [],
      "name": "symbol",
      "outputs": [
        {
          "internalType": "string",
          "name": "",
          "type": "string"
        }
      ],
      "stateMutability": "view",
      "type": "function"
    },
    {
      "inputs": [],
      "name": "tokenPricePerEther",
      "outputs": [
        {
          "internalType": "uint256",
          "name": "",
          "type": "uint256"
        }
      ],
      "stateMutability": "view",
      "type": "function"
    },
    {
      "inputs": [],
      "name": "totalRewards",
      "outputs": [
        {
          "internalType": "uint256",
          "name": "",
          "type": "uint256"
        }
      ],
      "stateMutability": "view",
      "type": "function"
    },
    {
      "inputs": [],
      "name": "totalStakes",
      "outputs": [
        {
          "internalType": "uint256",
          "name": "",
          "type": "uint256"
        }
      ],
      "stateMutability": "view",
      "type": "function"
    },
    {
      "inputs": [],
      "name": "totalSupply",
      "outputs": [
        {
          "internalType": "uint256",
          "name": "",
          "type": "uint256"
        }
      ],
      "stateMutability": "view",
      "type": "function"
    },
    {
      "inputs": [
        {
          "internalType": "address",
          "name": "to",
          "type": "address"
        },
        {
          "internalType": "uint256",
          "name": "amount",
          "type": "uint256"
        }
      ],
      "name": "transfer",
      "outputs": [
        {
          "internalType": "bool",
          "name": "",
          "type": "bool"
        }
      ],
      "stateMutability": "nonpayable",
      "type": "function"
    },
    {
      "inputs": [
        {
          "internalType": "address",
          "name": "from",
          "type": "address"
        },
        {
          "internalType": "address",
          "name": "to",
          "type": "address"
        },
        {
          "internalType": "uint256",
          "name": "amount",
          "type": "uint256"
        }
      ],
      "name": "transferFrom",
      "outputs": [
        {
          "internalType": "bool",
          "name": "",
          "type": "bool"
        }
      ],
      "stateMutability": "nonpayable",
      "type": "function"
    },
    {
      "inputs": [
        {
          "internalType": "address",
          "name": "newOwner",
          "type": "address"
        }
      ],
      "name": "transferOwnership",
      "outputs": [],
      "stateMutability": "nonpayable",
      "type": "function"
    },
    {
      "inputs": [],
      "name": "withdrawReward",
      "outputs": [],
      "stateMutability": "nonpayable",
      "type": "function"
    }
  ],
  "bytecode": "0x60806040523480156200001157600080fd5b506040518060400160405280600a81526020017f477265676f466c617368000000000000000000000000000000000000000000008152506040518060400160405280600381526020017f475246000000000000000000000000000000000000000000000000000000000081525081600390805190602001906200009692919062000358565b508060049080519060200190620000af92919062000358565b505050620000d2620000c66200010760201b60201c565b6200010f60201b60201c565b620000ed33683635c9adc5dea00000620001d560201b60201c565b620186a060098190555062093a80600a81905550620005b4565b600033905090565b6000600560009054906101000a900473ffffffffffffffffffffffffffffffffffffffff16905081600560006101000a81548173ffffffffffffffffffffffffffffffffffffffff021916908373ffffffffffffffffffffffffffffffffffffffff1602179055508173ffffffffffffffffffffffffffffffffffffffff168173ffffffffffffffffffffffffffffffffffffffff167f8be0079c531659141344cd1fd0a4f28419497f9722a3daafe3b4186f6b6457e060405160405180910390a35050565b600073ffffffffffffffffffffffffffffffffffffffff168273ffffffffffffffffffffffffffffffffffffffff16141562000248576040517f08c379a00000000000000000000000000000000000000000000000000000000081526004016200023f9062000440565b60405180910390fd5b6200025c600083836200034e60201b60201c565b806002600082825462000270919062000490565b92505081905550806000808473ffffffffffffffffffffffffffffffffffffffff1673ffffffffffffffffffffffffffffffffffffffff1681526020019081526020016000206000828254620002c7919062000490565b925050819055508173ffffffffffffffffffffffffffffffffffffffff16600073ffffffffffffffffffffffffffffffffffffffff167fddf252ad1be2c89b69c2b068fc378daa952ba7f163c4a11628f55a4df523b3ef836040516200032e919062000462565b60405180910390a36200034a600083836200035360201b60201c565b5050565b505050565b505050565b8280546200036690620004f7565b90600052602060002090601f0160209004810192826200038a5760008555620003d6565b82601f10620003a557805160ff1916838001178555620003d6565b82800160010185558215620003d6579182015b82811115620003d5578251825591602001919060010190620003b8565b5b509050620003e59190620003e9565b5090565b5b8082111562000404576000816000905550600101620003ea565b5090565b600062000417601f836200047f565b915062000424826200058b565b602082019050919050565b6200043a81620004ed565b82525050565b600060208201905081810360008301526200045b8162000408565b9050919050565b60006020820190506200047960008301846200042f565b92915050565b600082825260208201905092915050565b60006200049d82620004ed565b9150620004aa83620004ed565b9250827fffffffffffffffffffffffffffffffffffffffffffffffffffffffffffffffff03821115620004e257620004e16200052d565b5b828201905092915050565b6000819050919050565b600060028204905060018216806200051057607f821691505b602082108114156200052757620005266200055c565b5b50919050565b7f4e487b7100000000000000000000000000000000000000000000000000000000600052601160045260246000fd5b7f4e487b7100000000000000000000000000000000000000000000000000000000600052602260045260246000fd5b7f45524332303a206d696e7420746f20746865207a65726f206164647265737300600082015250565b612ec680620005c46000396000f3fe6080604052600436106101d85760003560e01c8063834dc98411610102578063bcb0c2d711610095578063dd62ed3e11610064578063dd62ed3e1461068f578063e5c42fd1146106cc578063ef037b90146106f5578063f2fde38b14610733576101d8565b8063bcb0c2d7146105e7578063bf9befb114610610578063c885bc581461063b578063d82e396214610652576101d8565b8063a457c2d7116100d1578063a457c2d714610538578063a482171914610575578063a9059cbb1461057f578063abdc2020146105bc576101d8565b8063834dc984146104905780638da5cb5b146104b9578063939624ab146104e457806395d89b411461050d576101d8565b8063313ce5671161017a5780636f4a2cd0116101495780636f4a2cd0146103fa57806370a0823114610411578063715018a61461044e5780638005a7de14610465576101d8565b8063313ce5671461033e578063372500ab14610369578063395093511461038057806342623360146103bd576101d8565b806318160ddd116101b657806318160ddd146102705780631bf6ddae1461029b5780631d62ebd9146102c457806323b872dd14610301576101d8565b806306fdde03146101dd578063095ea7b3146102085780630e15561a14610245575b600080fd5b3480156101e957600080fd5b506101f261075c565b6040516101ff91906125c8565b60405180910390f35b34801561021457600080fd5b5061022f600480360381019061022a9190612282565b6107ee565b60405161023c9190612584565b60405180910390f35b34801561025157600080fd5b5061025a610811565b60405161026791906127e6565b60405180910390f35b34801561027c57600080fd5b506102856108f5565b60405161029291906127e6565b60405180910390f35b3480156102a757600080fd5b506102c260048036038101906102bd91906122be565b6108ff565b005b3480156102d057600080fd5b506102eb60048036038101906102e691906121ce565b6109f8565b6040516102f891906127e6565b60405180910390f35b34801561030d57600080fd5b5061032860048036038101906103239190612233565b610a41565b6040516103359190612584565b60405180910390f35b34801561034a57600080fd5b50610353610a70565b6040516103609190612801565b60405180910390f35b34801561037557600080fd5b5061037e610a79565b005b34801561038c57600080fd5b506103a760048036038101906103a29190612282565b610b6e565b6040516103b49190612584565b60405180910390f35b3480156103c957600080fd5b506103e460048036038101906103df91906121ce565b610c18565b6040516103f191906127e6565b60405180910390f35b34801561040657600080fd5b5061040f610c61565b005b34801561041d57600080fd5b50610438600480360381019061043391906121ce565b610dd2565b60405161044591906127e6565b60405180910390f35b34801561045a57600080fd5b50610463610e1a565b005b34801561047157600080fd5b5061047a610ea2565b60405161048791906127e6565b60405180910390f35b34801561049c57600080fd5b506104b760048036038101906104b291906122be565b610ea8565b005b3480156104c557600080fd5b506104ce610f2e565b6040516104db9190612569565b60405180910390f35b3480156104f057600080fd5b5061050b600480360381019061050691906122be565b610f58565b005b34801561051957600080fd5b5061052261100d565b60405161052f91906125c8565b60405180910390f35b34801561054457600080fd5b5061055f600480360381019061055a9190612282565b61109f565b60405161056c9190612584565b60405180910390f35b61057d611189565b005b34801561058b57600080fd5b506105a660048036038101906105a19190612282565b611270565b6040516105b39190612584565b60405180910390f35b3480156105c857600080fd5b506105d1611293565b6040516105de91906127e6565b60405180910390f35b3480156105f357600080fd5b5061060e600480360381019061060991906121ce565b611299565b005b34801561061c57600080fd5b5061062561141a565b60405161063291906127e6565b60405180910390f35b34801561064757600080fd5b506106506114fe565b005b34801561065e57600080fd5b50610679600480360381019061067491906121ce565b611594565b60405161068691906127e6565b60405180910390f35b34801561069b57600080fd5b506106b660048036038101906106b191906121f7565b6115e9565b6040516106c391906127e6565b60405180910390f35b3480156106d857600080fd5b506106f360048036038101906106ee91906121ce565b611670565b005b34801561070157600080fd5b5061071c600480360381019061071791906121ce565b6116eb565b60405161072a92919061259f565b60405180910390f35b34801561073f57600080fd5b5061075a600480360381019061075591906121ce565b6117c5565b005b60606003805461076b906129d5565b80601f0160208091040260200160405190810160405280929190818152602001828054610797906129d5565b80156107e45780601f106107b9576101008083540402835291602001916107e4565b820191906000526020600020905b8154815290600101906020018083116107c757829003601f168201915b5050505050905090565b6000806107f96118bd565b90506108068185856118c5565b600191505092915050565b6000806000905060005b6006805490508110156108ed576008600060068381548110610866577f4e487b7100000000000000000000000000000000000000000000000000000000600052603260045260246000fd5b9060005260206000200160009054906101000a900473ffffffffffffffffffffffffffffffffffffffff1673ffffffffffffffffffffffffffffffffffffffff1673ffffffffffffffffffffffffffffffffffffffff16815260200190815260200160002054826108d79190612838565b91506001816108e69190612838565b905061081b565b508091505090565b6000600254905090565b6109093382611a90565b6000600760003373ffffffffffffffffffffffffffffffffffffffff1673ffffffffffffffffffffffffffffffffffffffff16815260200190815260200160002054141561095b5761095a33611670565b5b80600760003373ffffffffffffffffffffffffffffffffffffffff1673ffffffffffffffffffffffffffffffffffffffff16815260200190815260200160002060008282546109aa9190612838565b9250508190555042600b60003373ffffffffffffffffffffffffffffffffffffffff1673ffffffffffffffffffffffffffffffffffffffff1681526020019081526020016000208190555050565b6000600860008373ffffffffffffffffffffffffffffffffffffffff1673ffffffffffffffffffffffffffffffffffffffff168152602001908152602001600020549050919050565b600080610a4c6118bd565b9050610a59858285611c67565b610a64858585611cf3565b60019150509392505050565b60006012905090565b62093a80600b60003373ffffffffffffffffffffffffffffffffffffffff1673ffffffffffffffffffffffffffffffffffffffff16815260200190815260200160002054610ac79190612838565b4211610b08576040517f08c379a0000000000000000000000000000000000000000000000000000000008152600401610aff90612706565b60405180910390fd5b6000610b1333611594565b905080600860003373ffffffffffffffffffffffffffffffffffffffff1673ffffffffffffffffffffffffffffffffffffffff1681526020019081526020016000206000828254610b649190612838565b9250508190555050565b600080610b796118bd565b9050610c0d818585600160008673ffffffffffffffffffffffffffffffffffffffff1673ffffffffffffffffffffffffffffffffffffffff16815260200190815260200160002060008973ffffffffffffffffffffffffffffffffffffffff1673ffffffffffffffffffffffffffffffffffffffff16815260200190815260200160002054610c089190612838565b6118c5565b600191505092915050565b6000600760008373ffffffffffffffffffffffffffffffffffffffff1673ffffffffffffffffffffffffffffffffffffffff168152602001908152602001600020549050919050565b610c696118bd565b73ffffffffffffffffffffffffffffffffffffffff16610c87610f2e565b73ffffffffffffffffffffffffffffffffffffffff1614610cdd576040517f08c379a0000000000000000000000000000000000000000000000000000000008152600401610cd490612726565b60405180910390fd5b60005b600680549050811015610dcf57600060068281548110610d29577f4e487b7100000000000000000000000000000000000000000000000000000000600052603260045260246000fd5b9060005260206000200160009054906101000a900473ffffffffffffffffffffffffffffffffffffffff1690506000610d6182611594565b905080600860008473ffffffffffffffffffffffffffffffffffffffff1673ffffffffffffffffffffffffffffffffffffffff1681526020019081526020016000206000828254610db29190612838565b925050819055505050600181610dc89190612838565b9050610ce0565b50565b60008060008373ffffffffffffffffffffffffffffffffffffffff1673ffffffffffffffffffffffffffffffffffffffff168152602001908152602001600020549050919050565b610e226118bd565b73ffffffffffffffffffffffffffffffffffffffff16610e40610f2e565b73ffffffffffffffffffffffffffffffffffffffff1614610e96576040517f08c379a0000000000000000000000000000000000000000000000000000000008152600401610e8d90612726565b60405180910390fd5b610ea06000611f74565b565b600a5481565b610eb06118bd565b73ffffffffffffffffffffffffffffffffffffffff16610ece610f2e565b73ffffffffffffffffffffffffffffffffffffffff1614610f24576040517f08c379a0000000000000000000000000000000000000000000000000000000008152600401610f1b90612726565b60405180910390fd5b8060098190555050565b6000600560009054906101000a900473ffffffffffffffffffffffffffffffffffffffff16905090565b80600760003373ffffffffffffffffffffffffffffffffffffffff1673ffffffffffffffffffffffffffffffffffffffff1681526020019081526020016000206000828254610fa79190612919565b925050819055506000600760003373ffffffffffffffffffffffffffffffffffffffff1673ffffffffffffffffffffffffffffffffffffffff16815260200190815260200160002054141561100057610fff33611299565b5b61100a338261203a565b50565b60606004805461101c906129d5565b80601f0160208091040260200160405190810160405280929190818152602001828054611048906129d5565b80156110955780601f1061106a57610100808354040283529160200191611095565b820191906000526020600020905b81548152906001019060200180831161107857829003601f168201915b5050505050905090565b6000806110aa6118bd565b90506000600160008373ffffffffffffffffffffffffffffffffffffffff1673ffffffffffffffffffffffffffffffffffffffff16815260200190815260200160002060008673ffffffffffffffffffffffffffffffffffffffff1673ffffffffffffffffffffffffffffffffffffffff16815260200190815260200160002054905083811015611170576040517f08c379a0000000000000000000000000000000000000000000000000000000008152600401611167906127a6565b60405180910390fd5b61117d82868684036118c5565b60019250505092915050565b6000670de0b6b3a7640000600954346111a291906128bf565b6111ac91906128bf565b90506000670de0b6b3a7640000826111c4919061288e565b90503373ffffffffffffffffffffffffffffffffffffffff167f13e48fbc3fde5a8672a50a4f79326e8cfe5a5caad41e879908d3d3a94c4c9a193460405161120c9190612658565b60405180910390a23373ffffffffffffffffffffffffffffffffffffffff167f13e48fbc3fde5a8672a50a4f79326e8cfe5a5caad41e879908d3d3a94c4c9a198260405161125a919061262a565b60405180910390a261126c338261203a565b5050565b60008061127b6118bd565b9050611288818585611cf3565b600191505092915050565b60095481565b6000806112a5836116eb565b91509150811561141557600660016006805490506112c39190612919565b815481106112fa577f4e487b7100000000000000000000000000000000000000000000000000000000600052603260045260246000fd5b9060005260206000200160009054906101000a900473ffffffffffffffffffffffffffffffffffffffff166006828154811061135f577f4e487b7100000000000000000000000000000000000000000000000000000000600052603260045260246000fd5b9060005260206000200160006101000a81548173ffffffffffffffffffffffffffffffffffffffff021916908373ffffffffffffffffffffffffffffffffffffffff16021790555060068054806113df577f4e487b7100000000000000000000000000000000000000000000000000000000600052603160045260246000fd5b6001900381819060005260206000200160006101000a81549073ffffffffffffffffffffffffffffffffffffffff021916905590555b505050565b6000806000905060005b6006805490508110156114f657600760006006838154811061146f577f4e487b7100000000000000000000000000000000000000000000000000000000600052603260045260246000fd5b9060005260206000200160009054906101000a900473ffffffffffffffffffffffffffffffffffffffff1673ffffffffffffffffffffffffffffffffffffffff1673ffffffffffffffffffffffffffffffffffffffff16815260200190815260200160002054826114e09190612838565b91506001816114ef9190612838565b9050611424565b508091505090565b6000600860003373ffffffffffffffffffffffffffffffffffffffff1673ffffffffffffffffffffffffffffffffffffffff1681526020019081526020016000205490506000600860003373ffffffffffffffffffffffffffffffffffffffff1673ffffffffffffffffffffffffffffffffffffffff16815260200190815260200160002081905550611591338261203a565b50565b60006064600760008473ffffffffffffffffffffffffffffffffffffffff1673ffffffffffffffffffffffffffffffffffffffff168152602001908152602001600020546115e2919061288e565b9050919050565b6000600160008473ffffffffffffffffffffffffffffffffffffffff1673ffffffffffffffffffffffffffffffffffffffff16815260200190815260200160002060008373ffffffffffffffffffffffffffffffffffffffff1673ffffffffffffffffffffffffffffffffffffffff16815260200190815260200160002054905092915050565b600061167b826116eb565b509050806116e7576006829080600181540180825580915050600190039060005260206000200160009091909190916101000a81548173ffffffffffffffffffffffffffffffffffffffff021916908373ffffffffffffffffffffffffffffffffffffffff1602179055505b5050565b60008060005b6006805490508110156117b75760068181548110611738577f4e487b7100000000000000000000000000000000000000000000000000000000600052603260045260246000fd5b9060005260206000200160009054906101000a900473ffffffffffffffffffffffffffffffffffffffff1673ffffffffffffffffffffffffffffffffffffffff168473ffffffffffffffffffffffffffffffffffffffff1614156117a35760018192509250506117c0565b6001816117b09190612838565b90506116f1565b50600080915091505b915091565b6117cd6118bd565b73ffffffffffffffffffffffffffffffffffffffff166117eb610f2e565b73ffffffffffffffffffffffffffffffffffffffff1614611841576040517f08c379a000000000000000000000000000000000000000000000000000000000815260040161183890612726565b60405180910390fd5b600073ffffffffffffffffffffffffffffffffffffffff168173ffffffffffffffffffffffffffffffffffffffff1614156118b1576040517f08c379a00000000000000000000000000000000000000000000000000000000081526004016118a890612686565b60405180910390fd5b6118ba81611f74565b50565b600033905090565b600073ffffffffffffffffffffffffffffffffffffffff168373ffffffffffffffffffffffffffffffffffffffff161415611935576040517f08c379a000000000000000000000000000000000000000000000000000000000815260040161192c90612786565b60405180910390fd5b600073ffffffffffffffffffffffffffffffffffffffff168273ffffffffffffffffffffffffffffffffffffffff1614156119a5576040517f08c379a000000000000000000000000000000000000000000000000000000000815260040161199c906126a6565b60405180910390fd5b80600160008573ffffffffffffffffffffffffffffffffffffffff1673ffffffffffffffffffffffffffffffffffffffff16815260200190815260200160002060008473ffffffffffffffffffffffffffffffffffffffff1673ffffffffffffffffffffffffffffffffffffffff168152602001908152602001600020819055508173ffffffffffffffffffffffffffffffffffffffff168373ffffffffffffffffffffffffffffffffffffffff167f8c5be1e5ebec7d5bd14f71427d1e84f3dd0314c0f7b2291e5b200ac8c7c3b92583604051611a8391906127e6565b60405180910390a3505050565b600073ffffffffffffffffffffffffffffffffffffffff168273ffffffffffffffffffffffffffffffffffffffff161415611b00576040517f08c379a0000000000000000000000000000000000000000000000000000000008152600401611af790612746565b60405180910390fd5b611b0c8260008361219a565b60008060008473ffffffffffffffffffffffffffffffffffffffff1673ffffffffffffffffffffffffffffffffffffffff16815260200190815260200160002054905081811015611b92576040517f08c379a0000000000000000000000000000000000000000000000000000000008152600401611b899061260a565b60405180910390fd5b8181036000808573ffffffffffffffffffffffffffffffffffffffff1673ffffffffffffffffffffffffffffffffffffffff168152602001908152602001600020819055508160026000828254611be99190612919565b92505081905550600073ffffffffffffffffffffffffffffffffffffffff168373ffffffffffffffffffffffffffffffffffffffff167fddf252ad1be2c89b69c2b068fc378daa952ba7f163c4a11628f55a4df523b3ef84604051611c4e91906127e6565b60405180910390a3611c628360008461219f565b505050565b6000611c7384846115e9565b90507fffffffffffffffffffffffffffffffffffffffffffffffffffffffffffffffff8114611ced5781811015611cdf576040517f08c379a0000000000000000000000000000000000000000000000000000000008152600401611cd6906126c6565b60405180910390fd5b611cec84848484036118c5565b5b50505050565b600073ffffffffffffffffffffffffffffffffffffffff168373ffffffffffffffffffffffffffffffffffffffff161415611d63576040517f08c379a0000000000000000000000000000000000000000000000000000000008152600401611d5a90612766565b60405180910390fd5b600073ffffffffffffffffffffffffffffffffffffffff168273ffffffffffffffffffffffffffffffffffffffff161415611dd3576040517f08c379a0000000000000000000000000000000000000000000000000000000008152600401611dca906125ea565b60405180910390fd5b611dde83838361219a565b60008060008573ffffffffffffffffffffffffffffffffffffffff1673ffffffffffffffffffffffffffffffffffffffff16815260200190815260200160002054905081811015611e64576040517f08c379a0000000000000000000000000000000000000000000000000000000008152600401611e5b906126e6565b60405180910390fd5b8181036000808673ffffffffffffffffffffffffffffffffffffffff1673ffffffffffffffffffffffffffffffffffffffff16815260200190815260200160002081905550816000808573ffffffffffffffffffffffffffffffffffffffff1673ffffffffffffffffffffffffffffffffffffffff1681526020019081526020016000206000828254611ef79190612838565b925050819055508273ffffffffffffffffffffffffffffffffffffffff168473ffffffffffffffffffffffffffffffffffffffff167fddf252ad1be2c89b69c2b068fc378daa952ba7f163c4a11628f55a4df523b3ef84604051611f5b91906127e6565b60405180910390a3611f6e84848461219f565b50505050565b6000600560009054906101000a900473ffffffffffffffffffffffffffffffffffffffff16905081600560006101000a81548173ffffffffffffffffffffffffffffffffffffffff021916908373ffffffffffffffffffffffffffffffffffffffff1602179055508173ffffffffffffffffffffffffffffffffffffffff168173ffffffffffffffffffffffffffffffffffffffff167f8be0079c531659141344cd1fd0a4f28419497f9722a3daafe3b4186f6b6457e060405160405180910390a35050565b600073ffffffffffffffffffffffffffffffffffffffff168273ffffffffffffffffffffffffffffffffffffffff1614156120aa576040517f08c379a00000000000000000000000000000000000000000000000000000000081526004016120a1906127c6565b60405180910390fd5b6120b66000838361219a565b80600260008282546120c89190612838565b92505081905550806000808473ffffffffffffffffffffffffffffffffffffffff1673ffffffffffffffffffffffffffffffffffffffff168152602001908152602001600020600082825461211d9190612838565b925050819055508173ffffffffffffffffffffffffffffffffffffffff16600073ffffffffffffffffffffffffffffffffffffffff167fddf252ad1be2c89b69c2b068fc378daa952ba7f163c4a11628f55a4df523b3ef8360405161218291906127e6565b60405180910390a36121966000838361219f565b5050565b505050565b505050565b6000813590506121b381612e62565b92915050565b6000813590506121c881612e79565b92915050565b6000602082840312156121e057600080fd5b60006121ee848285016121a4565b91505092915050565b6000806040838503121561220a57600080fd5b6000612218858286016121a4565b9250506020612229858286016121a4565b9150509250929050565b60008060006060848603121561224857600080fd5b6000612256868287016121a4565b9350506020612267868287016121a4565b9250506040612278868287016121b9565b9150509250925092565b6000806040838503121561229557600080fd5b60006122a3858286016121a4565b92505060206122b4858286016121b9565b9150509250929050565b6000602082840312156122d057600080fd5b60006122de848285016121b9565b91505092915050565b6122f08161294d565b82525050565b6122ff8161295f565b82525050565b60006123108261281c565b61231a8185612827565b935061232a8185602086016129a2565b61233381612a94565b840191505092915050565b600061234b602383612827565b915061235682612aa5565b604082019050919050565b600061236e602283612827565b915061237982612af4565b604082019050919050565b6000612391601983612827565b915061239c82612b43565b602082019050919050565b60006123b4600e83612827565b91506123bf82612b6c565b602082019050919050565b60006123d7602683612827565b91506123e282612b95565b604082019050919050565b60006123fa602283612827565b915061240582612be4565b604082019050919050565b600061241d601d83612827565b915061242882612c33565b602082019050919050565b6000612440602683612827565b915061244b82612c5c565b604082019050919050565b6000612463601383612827565b915061246e82612cab565b602082019050919050565b6000612486602083612827565b915061249182612cd4565b602082019050919050565b60006124a9602183612827565b91506124b482612cfd565b604082019050919050565b60006124cc602583612827565b91506124d782612d4c565b604082019050919050565b60006124ef602483612827565b91506124fa82612d9b565b604082019050919050565b6000612512602583612827565b915061251d82612dea565b604082019050919050565b6000612535601f83612827565b915061254082612e39565b602082019050919050565b6125548161298b565b82525050565b61256381612995565b82525050565b600060208201905061257e60008301846122e7565b92915050565b600060208201905061259960008301846122f6565b92915050565b60006040820190506125b460008301856122f6565b6125c1602083018461254b565b9392505050565b600060208201905081810360008301526125e28184612305565b905092915050565b600060208201905081810360008301526126038161233e565b9050919050565b6000602082019050818103600083015261262381612361565b9050919050565b6000604082019050818103600083015261264381612384565b9050612652602083018461254b565b92915050565b60006040820190508181036000830152612671816123a7565b9050612680602083018461254b565b92915050565b6000602082019050818103600083015261269f816123ca565b9050919050565b600060208201905081810360008301526126bf816123ed565b9050919050565b600060208201905081810360008301526126df81612410565b9050919050565b600060208201905081810360008301526126ff81612433565b9050919050565b6000602082019050818103600083015261271f81612456565b9050919050565b6000602082019050818103600083015261273f81612479565b9050919050565b6000602082019050818103600083015261275f8161249c565b9050919050565b6000602082019050818103600083015261277f816124bf565b9050919050565b6000602082019050818103600083015261279f816124e2565b9050919050565b600060208201905081810360008301526127bf81612505565b9050919050565b600060208201905081810360008301526127df81612528565b9050919050565b60006020820190506127fb600083018461254b565b92915050565b6000602082019050612816600083018461255a565b92915050565b600081519050919050565b600082825260208201905092915050565b60006128438261298b565b915061284e8361298b565b9250827fffffffffffffffffffffffffffffffffffffffffffffffffffffffffffffffff0382111561288357612882612a07565b5b828201905092915050565b60006128998261298b565b91506128a48361298b565b9250826128b4576128b3612a36565b5b828204905092915050565b60006128ca8261298b565b91506128d58361298b565b9250817fffffffffffffffffffffffffffffffffffffffffffffffffffffffffffffffff048311821515161561290e5761290d612a07565b5b828202905092915050565b60006129248261298b565b915061292f8361298b565b92508282101561294257612941612a07565b5b828203905092915050565b60006129588261296b565b9050919050565b60008115159050919050565b600073ffffffffffffffffffffffffffffffffffffffff82169050919050565b6000819050919050565b600060ff82169050919050565b60005b838110156129c05780820151818401526020810190506129a5565b838111156129cf576000848401525b50505050565b600060028204905060018216806129ed57607f821691505b60208210811415612a0157612a00612a65565b5b50919050565b7f4e487b7100000000000000000000000000000000000000000000000000000000600052601160045260246000fd5b7f4e487b7100000000000000000000000000000000000000000000000000000000600052601260045260246000fd5b7f4e487b7100000000000000000000000000000000000000000000000000000000600052602260045260246000fd5b6000601f19601f8301169050919050565b7f45524332303a207472616e7366657220746f20746865207a65726f206164647260008201527f6573730000000000000000000000000000000000000000000000000000000000602082015250565b7f45524332303a206275726e20616d6f756e7420657863656564732062616c616e60008201527f6365000000000000000000000000000000000000000000000000000000000000602082015250565b7f616d6f756e74206f6620746f6b656e20696e2065746865727300000000000000600082015250565b7f696e697469616c20616d6f756e74000000000000000000000000000000000000600082015250565b7f4f776e61626c653a206e6577206f776e657220697320746865207a65726f206160008201527f6464726573730000000000000000000000000000000000000000000000000000602082015250565b7f45524332303a20617070726f766520746f20746865207a65726f20616464726560008201527f7373000000000000000000000000000000000000000000000000000000000000602082015250565b7f45524332303a20696e73756666696369656e7420616c6c6f77616e6365000000600082015250565b7f45524332303a207472616e7366657220616d6f756e742065786365656473206260008201527f616c616e63650000000000000000000000000000000000000000000000000000602082015250565b7f4e6f74207570746f2031207765656b2079657400000000000000000000000000600082015250565b7f4f776e61626c653a2063616c6c6572206973206e6f7420746865206f776e6572600082015250565b7f45524332303a206275726e2066726f6d20746865207a65726f2061646472657360008201527f7300000000000000000000000000000000000000000000000000000000000000602082015250565b7f45524332303a207472616e736665722066726f6d20746865207a65726f20616460008201527f6472657373000000000000000000000000000000000000000000000000000000602082015250565b7f45524332303a20617070726f76652066726f6d20746865207a65726f2061646460008201527f7265737300000000000000000000000000000000000000000000000000000000602082015250565b7f45524332303a2064656372656173656420616c6c6f77616e63652062656c6f7760008201527f207a65726f000000000000000000000000000000000000000000000000000000602082015250565b7f45524332303a206d696e7420746f20746865207a65726f206164647265737300600082015250565b612e6b8161294d565b8114612e7657600080fd5b50565b612e828161298b565b8114612e8d57600080fd5b5056fea26469706673582212200e43adfe0dd95423e95ad1681f21e18a23300141a1c69a5e77418634498c734564736f6c63430008040033",
  "linkReferences": {},
  "deployedLinkReferences": {}
}